{
  "_format": "hh-sol-artifact-1",
  "contractName": "VotingEscrow",
  "sourceName": "contracts/token/VotingEscrow.sol",
  "abi": [
    {
      "inputs": [
        {
          "internalType": "address",
          "name": "p12TokenAddr_",
          "type": "address"
        },
        {
          "internalType": "string",
          "name": "name_",
          "type": "string"
        },
        {
          "internalType": "string",
          "name": "symbol_",
          "type": "string"
        }
      ],
      "stateMutability": "nonpayable",
      "type": "constructor"
    },
    {
      "anonymous": false,
      "inputs": [
        {
          "indexed": true,
          "internalType": "address",
          "name": "provider",
          "type": "address"
        },
        {
          "indexed": false,
          "internalType": "uint256",
          "name": "value",
          "type": "uint256"
        },
        {
          "indexed": true,
          "internalType": "uint256",
          "name": "lockTime",
          "type": "uint256"
        },
        {
          "indexed": false,
          "internalType": "enum VotingEscrow.OperationType",
          "name": "t",
          "type": "uint8"
        },
        {
          "indexed": false,
          "internalType": "uint256",
          "name": "ts",
          "type": "uint256"
        }
      ],
      "name": "Deposit",
      "type": "event"
    },
    {
      "anonymous": false,
      "inputs": [
        {
          "indexed": false,
          "internalType": "address",
          "name": "addr",
          "type": "address"
        },
        {
          "indexed": false,
          "internalType": "uint256",
          "name": "timestamp",
          "type": "uint256"
        }
      ],
      "name": "Expired",
      "type": "event"
    },
    {
      "anonymous": false,
      "inputs": [
        {
          "indexed": true,
          "internalType": "address",
          "name": "previousOwner",
          "type": "address"
        },
        {
          "indexed": true,
          "internalType": "address",
          "name": "newOwner",
          "type": "address"
        }
      ],
      "name": "OwnershipTransferred",
      "type": "event"
    },
    {
      "anonymous": false,
      "inputs": [
        {
          "indexed": false,
          "internalType": "address",
          "name": "account",
          "type": "address"
        }
      ],
      "name": "Paused",
      "type": "event"
    },
    {
      "anonymous": false,
      "inputs": [
        {
          "indexed": false,
          "internalType": "uint256",
          "name": "prevTotalLockedP12",
          "type": "uint256"
        },
        {
          "indexed": false,
          "internalType": "uint256",
          "name": "totalLockedP12",
          "type": "uint256"
        }
      ],
      "name": "TotalLocked",
      "type": "event"
    },
    {
      "anonymous": false,
      "inputs": [
        {
          "indexed": false,
          "internalType": "address",
          "name": "account",
          "type": "address"
        }
      ],
      "name": "Unpaused",
      "type": "event"
    },
    {
      "anonymous": false,
      "inputs": [
        {
          "indexed": true,
          "internalType": "address",
          "name": "provider",
          "type": "address"
        },
        {
          "indexed": false,
          "internalType": "uint256",
          "name": "value",
          "type": "uint256"
        },
        {
          "indexed": false,
          "internalType": "uint256",
          "name": "ts",
          "type": "uint256"
        }
      ],
      "name": "Withdraw",
      "type": "event"
    },
    {
      "inputs": [
        {
          "internalType": "address",
          "name": "addr",
          "type": "address"
        }
      ],
      "name": "balanceOf",
      "outputs": [
        {
          "internalType": "int256",
          "name": "",
          "type": "int256"
        }
      ],
      "stateMutability": "view",
      "type": "function"
    },
    {
      "inputs": [
        {
          "internalType": "address",
          "name": "addr",
          "type": "address"
        },
        {
          "internalType": "uint256",
          "name": "blk",
          "type": "uint256"
        }
      ],
      "name": "balanceOfAt",
      "outputs": [
        {
          "internalType": "int256",
          "name": "",
          "type": "int256"
        }
      ],
      "stateMutability": "view",
      "type": "function"
    },
    {
      "inputs": [],
      "name": "checkPoint",
      "outputs": [],
      "stateMutability": "nonpayable",
      "type": "function"
    },
    {
      "inputs": [
        {
          "internalType": "uint256",
          "name": "value",
          "type": "uint256"
        },
        {
          "internalType": "uint256",
          "name": "unlockTime",
          "type": "uint256"
        }
      ],
      "name": "createLock",
      "outputs": [],
      "stateMutability": "nonpayable",
      "type": "function"
    },
    {
      "inputs": [],
      "name": "decimals",
      "outputs": [
        {
          "internalType": "uint256",
          "name": "",
          "type": "uint256"
        }
      ],
      "stateMutability": "view",
      "type": "function"
    },
    {
      "inputs": [
        {
          "internalType": "address",
          "name": "addr",
          "type": "address"
        },
        {
          "internalType": "uint256",
          "name": "value",
          "type": "uint256"
        }
      ],
      "name": "depositFor",
      "outputs": [],
      "stateMutability": "nonpayable",
      "type": "function"
    },
    {
      "inputs": [],
      "name": "epoch",
      "outputs": [
        {
          "internalType": "uint256",
          "name": "",
          "type": "uint256"
        }
      ],
      "stateMutability": "view",
      "type": "function"
    },
    {
      "inputs": [],
      "name": "expire",
      "outputs": [],
      "stateMutability": "nonpayable",
      "type": "function"
    },
    {
      "inputs": [],
      "name": "expired",
      "outputs": [
        {
          "internalType": "bool",
          "name": "",
          "type": "bool"
        }
      ],
      "stateMutability": "view",
      "type": "function"
    },
    {
      "inputs": [
        {
          "internalType": "uint256",
          "name": "blk",
          "type": "uint256"
        },
        {
          "internalType": "uint256",
          "name": "maxEpoch",
          "type": "uint256"
        }
      ],
      "name": "findBlockEpoch",
      "outputs": [
        {
          "internalType": "uint256",
          "name": "",
          "type": "uint256"
        }
      ],
      "stateMutability": "view",
      "type": "function"
    },
    {
      "inputs": [
        {
          "internalType": "address",
          "name": "addr",
          "type": "address"
        }
      ],
      "name": "getLastUserSlope",
      "outputs": [
        {
          "internalType": "int256",
          "name": "",
          "type": "int256"
        }
      ],
      "stateMutability": "view",
      "type": "function"
    },
    {
      "inputs": [
        {
          "internalType": "uint256",
          "name": "value",
          "type": "uint256"
        }
      ],
      "name": "increaseAmount",
      "outputs": [],
      "stateMutability": "nonpayable",
      "type": "function"
    },
    {
      "inputs": [
        {
          "internalType": "uint256",
          "name": "unlockTime",
          "type": "uint256"
        }
      ],
      "name": "increaseUnlockTime",
      "outputs": [],
      "stateMutability": "nonpayable",
      "type": "function"
    },
    {
      "inputs": [
        {
          "internalType": "address",
          "name": "",
          "type": "address"
        }
      ],
      "name": "locked",
      "outputs": [
        {
          "internalType": "int256",
          "name": "amount",
          "type": "int256"
        },
        {
          "internalType": "uint256",
          "name": "end",
          "type": "uint256"
        }
      ],
      "stateMutability": "view",
      "type": "function"
    },
    {
      "inputs": [
        {
          "internalType": "address",
          "name": "addr",
          "type": "address"
        }
      ],
      "name": "lockedEnd",
      "outputs": [
        {
          "internalType": "uint256",
          "name": "",
          "type": "uint256"
        }
      ],
      "stateMutability": "view",
      "type": "function"
    },
    {
      "inputs": [],
      "name": "name",
      "outputs": [
        {
          "internalType": "string",
          "name": "",
          "type": "string"
        }
      ],
      "stateMutability": "view",
      "type": "function"
    },
    {
      "inputs": [],
      "name": "owner",
      "outputs": [
        {
          "internalType": "address",
          "name": "",
          "type": "address"
        }
      ],
      "stateMutability": "view",
      "type": "function"
    },
    {
      "inputs": [],
      "name": "p12Token",
      "outputs": [
        {
          "internalType": "address",
          "name": "",
          "type": "address"
        }
      ],
      "stateMutability": "view",
      "type": "function"
    },
    {
      "inputs": [],
      "name": "pause",
      "outputs": [],
      "stateMutability": "nonpayable",
      "type": "function"
    },
    {
      "inputs": [],
      "name": "paused",
      "outputs": [
        {
          "internalType": "bool",
          "name": "",
          "type": "bool"
        }
      ],
      "stateMutability": "view",
      "type": "function"
    },
    {
      "inputs": [
        {
          "internalType": "uint256",
          "name": "",
          "type": "uint256"
        }
      ],
      "name": "pointHistory",
      "outputs": [
        {
          "internalType": "int256",
          "name": "bias",
          "type": "int256"
        },
        {
          "internalType": "int256",
          "name": "slope",
          "type": "int256"
        },
        {
          "internalType": "uint256",
          "name": "ts",
          "type": "uint256"
        },
        {
          "internalType": "uint256",
          "name": "blk",
          "type": "uint256"
        }
      ],
      "stateMutability": "view",
      "type": "function"
    },
    {
      "inputs": [],
      "name": "renounceOwnership",
      "outputs": [],
      "stateMutability": "nonpayable",
      "type": "function"
    },
    {
      "inputs": [
        {
          "internalType": "uint256",
          "name": "",
          "type": "uint256"
        }
      ],
      "name": "slopeChanges",
      "outputs": [
        {
          "internalType": "int256",
          "name": "",
          "type": "int256"
        }
      ],
      "stateMutability": "view",
      "type": "function"
    },
    {
      "inputs": [],
      "name": "symbol",
      "outputs": [
        {
          "internalType": "string",
          "name": "",
          "type": "string"
        }
      ],
      "stateMutability": "view",
      "type": "function"
    },
    {
      "inputs": [],
      "name": "totalLockedP12",
      "outputs": [
        {
          "internalType": "uint256",
          "name": "",
          "type": "uint256"
        }
      ],
      "stateMutability": "view",
      "type": "function"
    },
    {
      "inputs": [],
      "name": "totalSupply",
      "outputs": [
        {
          "internalType": "uint256",
          "name": "",
          "type": "uint256"
        }
      ],
      "stateMutability": "view",
      "type": "function"
    },
    {
      "inputs": [
        {
          "internalType": "uint256",
          "name": "blk",
          "type": "uint256"
        }
      ],
      "name": "totalSupplyAt",
      "outputs": [
        {
          "internalType": "uint256",
          "name": "",
          "type": "uint256"
        }
      ],
      "stateMutability": "view",
      "type": "function"
    },
    {
      "inputs": [
        {
          "internalType": "address",
          "name": "newOwner",
          "type": "address"
        }
      ],
      "name": "transferOwnership",
      "outputs": [],
      "stateMutability": "nonpayable",
      "type": "function"
    },
    {
      "inputs": [],
      "name": "unpause",
      "outputs": [],
      "stateMutability": "nonpayable",
      "type": "function"
    },
    {
      "inputs": [
        {
          "internalType": "address",
          "name": "",
          "type": "address"
        }
      ],
      "name": "userPointEpoch",
      "outputs": [
        {
          "internalType": "uint256",
          "name": "",
          "type": "uint256"
        }
      ],
      "stateMutability": "view",
      "type": "function"
    },
    {
      "inputs": [
        {
          "internalType": "address",
          "name": "",
          "type": "address"
        },
        {
          "internalType": "uint256",
          "name": "",
          "type": "uint256"
        }
      ],
      "name": "userPointHistory",
      "outputs": [
        {
          "internalType": "int256",
          "name": "bias",
          "type": "int256"
        },
        {
          "internalType": "int256",
          "name": "slope",
          "type": "int256"
        },
        {
          "internalType": "uint256",
          "name": "ts",
          "type": "uint256"
        },
        {
          "internalType": "uint256",
          "name": "blk",
          "type": "uint256"
        }
      ],
      "stateMutability": "view",
      "type": "function"
    },
    {
      "inputs": [
        {
          "internalType": "address",
          "name": "addr",
          "type": "address"
        },
        {
          "internalType": "uint256",
          "name": "idx",
          "type": "uint256"
        }
      ],
      "name": "userPointHistoryTs",
      "outputs": [
        {
          "internalType": "uint256",
          "name": "",
          "type": "uint256"
        }
      ],
      "stateMutability": "view",
      "type": "function"
    },
    {
      "inputs": [],
      "name": "withdraw",
      "outputs": [],
      "stateMutability": "nonpayable",
      "type": "function"
    }
  ],
  "bytecode": "0x60806040523480156200001157600080fd5b5060405162002c1238038062002c12833981016040819052620000349162000315565b6001600055620000443362000150565b6001805460ff60a01b191690556001600160a01b038316620000ac5760405162461bcd60e51b815260206004820152601f60248201527f566f74696e67457363726f773a20746f6b656e2063616e6e6f74206265203000604482015260640160405180910390fd5b8151620000c190600b906020850190620001a2565b508051620000d790600c906020840190620001a2565b5050600280546001600160a01b0319166001600160a01b03939093169290921790915550600080526007602052437f6d5257204ebe7d88fd91ae87941cb2dd9d8062b64ae5a2bd2d28ec40b9fbf6e255427f6d5257204ebe7d88fd91ae87941cb2dd9d8062b64ae5a2bd2d28ec40b9fbf6e155620003db565b600180546001600160a01b038381166001600160a01b0319831681179093556040519116919082907f8be0079c531659141344cd1fd0a4f28419497f9722a3daafe3b4186f6b6457e090600090a35050565b828054620001b0906200039f565b90600052602060002090601f016020900481019282620001d457600085556200021f565b82601f10620001ef57805160ff19168380011785556200021f565b828001600101855582156200021f579182015b828111156200021f57825182559160200191906001019062000202565b506200022d92915062000231565b5090565b5b808211156200022d576000815560010162000232565b634e487b7160e01b600052604160045260246000fd5b600082601f8301126200027057600080fd5b81516001600160401b03808211156200028d576200028d62000248565b604051601f8301601f19908116603f01168101908282118183101715620002b857620002b862000248565b81604052838152602092508683858801011115620002d557600080fd5b600091505b83821015620002f95785820183015181830184015290820190620002da565b838211156200030b5760008385830101525b9695505050505050565b6000806000606084860312156200032b57600080fd5b83516001600160a01b03811681146200034357600080fd5b60208501519093506001600160401b03808211156200036157600080fd5b6200036f878388016200025e565b935060408601519150808211156200038657600080fd5b5062000395868287016200025e565b9150509250925092565b600181811c90821680620003b457607f821691505b602082108103620003d557634e487b7160e01b600052602260045260246000fd5b50919050565b61282780620003eb6000396000f3fe608060405234801561001057600080fd5b50600436106101fb5760003560e01c806379599f961161011a57806395d89b41116100ad578063cff805ab1161007c578063cff805ab146104a0578063eac6a667146104a8578063f2fde38b146104e1578063f3a6d608146104f4578063f52a36f71461053357600080fd5b806395d89b4114610436578063981b24d01461043e578063b52c05fe14610451578063cbf9fe5f1461046457600080fd5b80638ad4c447116100e95780638ad4c447146103bc5780638b7c37a3146103f15780638da5cb5b1461041c578063900cf0cf1461042d57600080fd5b806379599f96146103795780637c616fe61461038157806381fc83bb146103945780638456cb59146103b457600080fd5b80633ccfd60b116101925780634ee2cd7e116101615780634ee2cd7e146103395780635c975abb1461034c57806370a082311461035e578063715018a61461037157600080fd5b80633ccfd60b146102e05780633f4ba83a146102e85780634c2067c7146102f05780634deafcae1461030d57600080fd5b8063313ce567116101ce578063313ce5671461025c5780633323bac91461026457806334d901a41461026d57806338dbff66146102cd57600080fd5b806306fdde031461020057806315456eba1461021e57806318160ddd146102335780632f4f21e214610249575b600080fd5b610208610553565b60405161021591906123d9565b60405180910390f35b61023161022c36600461240c565b6105e1565b005b61023b61073c565b604051908152602001610215565b610231610257366004612441565b610791565b61023b601281565b61023b60035481565b6102ad61027b366004612441565b600860209081526000928352604080842090915290825290208054600182015460028301546003909301549192909184565b604080519485526020850193909352918301526060820152608001610215565b61023b6102db36600461246b565b61091f565b6102316109a8565b610231610b97565b6006546102fd9060ff1681565b6040519015158152602001610215565b61023b61031b36600461248d565b6001600160a01b031660009081526004602052604090206001015490565b61023b610347366004612441565b610ba9565b600154600160a01b900460ff166102fd565b61023b61036c36600461248d565b610e90565b610231610f52565b610231610f64565b61023161038f36600461240c565b610fd7565b61023b6103a236600461248d565b60096020526000908152604090205481565b6102316111d0565b6102ad6103ca36600461240c565b60076020526000908152604090208054600182015460028301546003909301549192909184565b600254610404906001600160a01b031681565b6040516001600160a01b039091168152602001610215565b6001546001600160a01b0316610404565b61023b60055481565b6102086111e0565b61023b61044c36600461240c565b6111ed565b61023161045f36600461246b565b6113bf565b61048b61047236600461248d565b6004602052600090815260409020805460019091015482565b60408051928352602083019190915201610215565b610231611598565b61023b6104b6366004612441565b6001600160a01b03919091166000908152600860209081526040808320938352929052206002015490565b6102316104ef36600461248d565b6115d0565b61023b61050236600461248d565b6001600160a01b03166000908152600960209081526040808320546008835281842090845290915290206001015490565b61023b61054136600461240c565b600a6020526000908152604090205481565b600b8054610560906124a8565b80601f016020809104026020016040519081016040528092919081815260200182805461058c906124a8565b80156105d95780601f106105ae576101008083540402835291602001916105d9565b820191906000526020600020905b8154815290600101906020018083116105bc57829003601f168201915b505050505081565b60026000540361060c5760405162461bcd60e51b8152600401610603906124dc565b60405180910390fd5b6002600055610619611649565b60065460ff161561063c5760405162461bcd60e51b815260040161060390612513565b336000908152600460209081526040918290208251808401909352805483526001015490820152816106805760405162461bcd60e51b81526004016106039061254a565b80516000126106d15760405162461bcd60e51b815260206004820152601e60248201527f566f74696e67457363726f773a206e6f206578697374696e67206c6f636b00006044820152606401610603565b428160200151116107245760405162461bcd60e51b815260206004820152601a60248201527f566f74696e67457363726f773a206c6f636b20657870697265640000000000006044820152606401610603565b61073333836000846002611696565b50506001600055565b600554600081815260076020908152604080832081516080810183528154815260018201549381019390935260028101549183019190915260030154606082015290919061078a8142611833565b9250505090565b6002600054036107b35760405162461bcd60e51b8152600401610603906124dc565b60026000556107c0611649565b60065460ff16156107e35760405162461bcd60e51b815260040161060390612513565b6001600160a01b0382166000908152600460209081526040918290208251808401909352805483526001015490820152816108305760405162461bcd60e51b81526004016106039061254a565b80516000126108815760405162461bcd60e51b815260206004820152601e60248201527f566f74696e67457363726f773a206e6f206578697374696e67206c6f636b00006044820152606401610603565b428160200151116108d45760405162461bcd60e51b815260206004820152601a60248201527f566f74696e67457363726f773a206c6f636b20657870697265640000000000006044820152606401610603565b6001600160a01b0383166000908152600460209081526040808320815180830190925280548252600101549181019190915261091591859185919081611696565b5050600160005550565b60008082815b6080811161099c578183101561099c57600060026109438486612597565b61094e906001612597565b61095891906125c5565b600081815260076020526040902060030154909150871061097b57809350610989565b6109866001826125d9565b92505b5080610994816125f0565b915050610925565b50909150505b92915050565b6002600054036109ca5760405162461bcd60e51b8152600401610603906124dc565b60026000556109d7611649565b33600090815260046020908152604080832081518083019092528054808352600190910154928201929092529112610a515760405162461bcd60e51b815260206004820152601d60248201527f566f74696e67457363726f773a206e6f206c6f636b656420746f6b656e0000006044820152606401610603565b806020015142101580610a66575060065460ff165b610ab25760405162461bcd60e51b815260206004820152601f60248201527f566f74696e67457363726f773a20636f6e646974696f6e206e6f74206d6574006044820152606401610603565b805160006020808401828152828552338352600490915260409091208351815590516001909101556003548290610ae983826125d9565b600355610af7338386611923565b600254610b0e906001600160a01b03163385611f08565b6040805184815242602082015233917ff279e6a1f5e320cca91135676d9cb6e44ca8a08c0b88342bcdb1144f6511b568910160405180910390a27f20afdd8f420a231acd54c47385623d5f04cacd142f4792d73dd98a454ad6cc1381610b7485826125d9565b6040805192835260208301919091520160405180910390a1505060016000555050565b610b9f611f5f565b610ba7611fb9565b565b600043821115610bfb5760405162461bcd60e51b815260206004820152601b60248201527f566f74696e67457363726f773a20696e76616c696420626c6f636b00000000006044820152606401610603565b6001600160a01b03831660009081526009602052604081205460015b60808111610ca35781831015610ca35760006002610c358486612597565b610c40906001612597565b610c4a91906125c5565b6001600160a01b03881660009081526008602090815260408083208484529091529020600301549091508610610c8257809350610c90565b610c8d6001826125d9565b92505b5080610c9b816125f0565b915050610c17565b506001600160a01b038516600090815260086020908152604080832085845282528083208151608081018352815481526001820154938101939093526002810154918301919091526003015460608201526005549091610d03878361091f565b60008181526007602090815260408083208151608081018352815481526001820154938101939093526002810154918301919091526003015460608201529192508084841015610dd2576000600781610d5d876001612597565b8152602001908152602001600020604051806080016040529081600082015481526020016001820154815260200160028201548152602001600382015481525050905083606001518160600151610db491906125d9565b925083604001518160400151610dca91906125d9565b915050610df6565b6060830151610de190436125d9565b9150826040015142610df391906125d9565b90505b60408301518215610e33578284606001518c610e1291906125d9565b610e1c9084612609565b610e2691906125c5565b610e309082612597565b90505b6040870151610e4290826125d9565b8760200151610e519190612628565b87518890610e609083906126ad565b9052508651600013610e7e575050935196506109a295505050505050565b600099505050505050505050506109a2565b6001600160a01b038116600090815260096020526040812054808203610eb95750600092915050565b6001600160a01b0383166000908152600860209081526040808320848452825291829020825160808101845281548152600182015492810192909252600281015492820183905260030154606082015290610f1490426125d9565b8160200151610f239190612628565b81518290610f329083906126ad565b905250805160001315610f4457600081525b519392505050565b50919050565b610f5a611f5f565b610ba76000612009565b610f6c611f5f565b60065460ff1615610f8f5760405162461bcd60e51b815260040161060390612513565b6006805460ff19166001179055604080513381524260208201527f751a0eb66c3cc9aa48957d09bd3cc81db888f5bcac6689def5fb9e18ec3cf20191015b60405180910390a1565b600260005403610ff95760405162461bcd60e51b8152600401610603906124dc565b6002600055611006611649565b60065460ff16156110295760405162461bcd60e51b815260040161060390612513565b33600090815260046020908152604080832081518083019092528054825260010154918101919091529062093a8061106181856125c5565b61106b9190612609565b9050428260200151116110c05760405162461bcd60e51b815260206004820152601a60248201527f566f74696e67457363726f773a204c6f636b20657870697265640000000000006044820152606401610603565b81516000126111115760405162461bcd60e51b815260206004820152601f60248201527f566f74696e67457363726f773a204e6f7468696e67206973206c6f636b6564006044820152606401610603565b816020015181116111645760405162461bcd60e51b815260206004820181905260248201527f566f74696e67457363726f773a20696e76616c696420756e6c6f636b54696d656044820152606401610603565b611172630784ce0042612597565b8111156111c15760405162461bcd60e51b815260206004820152601f60248201527f566f74696e67457363726f773a206578636565642063617020706572696f64006044820152606401610603565b61091533600083856002611696565b6111d8611f5f565b610ba761205b565b600c8054610560906124a8565b60004382111561123f5760405162461bcd60e51b815260206004820152601b60248201527f566f74696e67457363726f773a20696e76616c696420626c6f636b00000000006044820152606401610603565b600554600061124e848361091f565b60008181526007602090815260408083208151608081018352815481526001820154938101939093526002810154918301919091526003015460608201529192508383101561134d5760006007816112a7866001612597565b815260200190815260200160002060405180608001604052908160008201548152602001600182015481526020016002820154815260200160038201548152505090508060600151836060015114611347578260600151816060015161130d91906125d9565b8360400151826040015161132191906125d9565b6060850151611330908a6125d9565b61133a9190612609565b61134491906125c5565b91505b5061139c565b4382606001511461139c57606082015161136790436125d9565b604083015161137690426125d9565b606084015161138590896125d9565b61138f9190612609565b61139991906125c5565b90505b6113b5828284604001516113b09190612597565b611833565b9695505050505050565b6002600054036113e15760405162461bcd60e51b8152600401610603906124dc565b60026000556113ee611649565b60065460ff16156114115760405162461bcd60e51b815260040161060390612513565b600062093a8061142181846125c5565b61142b9190612609565b336000908152600460209081526040918290208251808401909352805483526001015490820152909150836114725760405162461bcd60e51b81526004016106039061254a565b8051156114c15760405162461bcd60e51b815260206004820152601f60248201527f566f74696e67457363726f773a206f6c6420746f6b656e73206c6f636b6564006044820152606401610603565b4282116115105760405162461bcd60e51b815260206004820152601860248201527f566f74696e67457363726f773a206c6f636b206c6174657200000000000000006044820152606401610603565b6115198261209e565b6115224261209e565b611530630784ce0042612597565b82111561157f5760405162461bcd60e51b815260206004820152601f60248201527f566f74696e67457363726f773a206578636565642063617020706572696f64006044820152606401610603565b61158d338584846001611696565b505060016000555050565b610ba7600060405180604001604052806000815260200160008152506040518060400160405280600081526020016000815250611923565b6115d8611f5f565b6001600160a01b03811661163d5760405162461bcd60e51b815260206004820152602660248201527f4f776e61626c653a206e6577206f776e657220697320746865207a65726f206160448201526564647265737360d01b6064820152608401610603565b61164681612009565b50565b600154600160a01b900460ff1615610ba75760405162461bcd60e51b815260206004820152601060248201526f14185d5cd8589b194e881c185d5cd95960821b6044820152606401610603565b60035482906116a58682612597565b6003556040805180820190915282518152602080840151908201528251879084906116d19083906126ec565b90525085156116e257602083018690525b6001600160a01b03881660009081526004602090815260409091208451815590840151600190910155611716888285611923565b861561179b576002546040516323b872dd60e01b81526001600160a01b038a81166004830152306024830152604482018a9052909116906323b872dd906064016020604051808303816000875af1158015611775573d6000803e3d6000fd5b505050506040513d601f19601f82011682018060405250810190611799919061272d565b505b8260200151886001600160a01b03167fbe9cf0e939c614fad640a623a53ba0a807c8cb503c4c4c8dacabe27b86ff2dd58987426040516117dd9392919061274f565b60405180910390a37f20afdd8f420a231acd54c47385623d5f04cacd142f4792d73dd98a454ad6cc13826118118982612597565b6040805192835260208301919091520160405180910390a15050505050505050565b600080839050600062093a8080836040015161184f91906125c5565b6118599190612609565b905060005b60ff8162ffffff16101561190a5761187962093a8083612597565b915060008583111561188d5785925061189e565b506000828152600a60205260409020545b60408401516118ad90846125d9565b84602001516118bc9190612628565b845185906118cb9083906126ad565b9052508583036118db575061190a565b80846020018181516118ed91906126ec565b90525050604083018290528061190281612785565b91505061185e565b5081516000131561191a57600082525b50519392505050565b61194e6040518060800160405280600081526020016000815260200160008152602001600081525090565b6119796040518060800160405280600081526020016000815260200160008152602001600081525090565b61199d60405180606001604052806000815260200160008152602001600081525090565b6000808252602082015260055460408201526001600160a01b03861615611ab6574285602001511180156119d2575084516000125b15611a115784516119e890630784ce00906127a7565b6020808501919091528501516119ff9042906125d9565b8360200151611a0e9190612628565b83525b428460200151118015611a25575083516000125b15611a64578351611a3b90630784ce00906127a7565b602080840191909152840151611a529042906125d9565b8260200151611a619190612628565b82525b6020808601516000908152600a82526040902054825284015115611ab6578460200151846020015103611a9d5780516020820152611ab6565b6020808501516000908152600a82526040902054908201525b604080516080810182526000808252602082015242818301524360608201529082015115611b2b57600760008360400151815260200190815260200160002060405180608001604052908160008201548152602001600182015481526020016002820154815260200160038201548152505090505b604081015181600042831015611b78576040840151611b4a90426125d9565b6060850151611b5990436125d9565b611b6b90670de0b6b3a7640000612609565b611b7591906125c5565b90505b600062093a80611b8881866125c5565b611b929190612609565b905060005b60ff8162ffffff161015611cfe57611bb262093a8083612597565b9150600042831115611bc657429250611bd7565b506000828152600a60205260409020545b611be186846125d9565b8760200151611bf09190612628565b87518890611bff9083906126ad565b905250602087018051829190611c169083906126ec565b905250865160001315611c2857600087525b600087602001511215611c3d57600060208801525b60408088018490528501519295508592670de0b6b3a764000090611c6190856125d9565b611c6b9086612609565b611c7591906125c5565b8560600151611c849190612597565b606088015260408801805160019190611c9e908390612597565b905250428303611cb45750436060870152611cfe565b604080890151600090815260076020908152908290208951815590890151600182015590880151600282015560608801516003909101555080611cf681612785565b915050611b97565b5060408601516005556001600160a01b038b1615611d825787602001518760200151611d2a91906126ad565b85602001818151611d3b91906126ec565b90525087518751611d4c91906126ad565b85518690611d5b9083906126ec565b905250602085015160001315611d7357600060208601525b845160001315611d8257600085525b604080870151600090815260076020908152908290208751815590870151600182015590860151600282015560608601516003909101556001600160a01b038b1615611efb57428a602001511115611e2a57602088015186518790611de89083906126ec565b9052506020808b0151908a015103611e1257602087015186518790611e0e9083906126ad565b9052505b85516020808c01516000908152600a90915260409020555b4289602001511115611e7a57896020015189602001511115611e7a57866020015186602001818151611e5c91906126ad565b9052506020808701518a8201516000908152600a9092526040909120555b6001600160a01b038b16600090815260096020526040812054611e9e906001612597565b6001600160a01b038d166000818152600960209081526040808320859055428d82019081524360608f01908152948452600883528184209584529482529091208b518155908b015160018201559151600283015551600390910155505b5050505050505050505050565b604080516001600160a01b038416602482015260448082018490528251808303909101815260649091019091526020810180516001600160e01b031663a9059cbb60e01b179052611f5a9084906120e3565b505050565b6001546001600160a01b03163314610ba75760405162461bcd60e51b815260206004820181905260248201527f4f776e61626c653a2063616c6c6572206973206e6f7420746865206f776e65726044820152606401610603565b611fc16121b5565b6001805460ff60a01b191690557f5db9ee0a495bf2e6ff9c91a7834c1ba4fdd244a5e8aa4e537bd38aeae4b073aa335b6040516001600160a01b039091168152602001610fcd565b600180546001600160a01b038381166001600160a01b0319831681179093556040519116919082907f8be0079c531659141344cd1fd0a4f28419497f9722a3daafe3b4186f6b6457e090600090a35050565b612063611649565b6001805460ff60a01b1916600160a01b1790557f62e78cea01bee320cd4e420270b5ea74000d11b0c9f74754ebdbfc544b05a258611ff13390565b611646816040516024016120b491815260200190565b60408051601f198184030181529190526020810180516001600160e01b031663f5b1bba960e01b179052612205565b6000612138826040518060400160405280602081526020017f5361666545524332303a206c6f772d6c6576656c2063616c6c206661696c6564815250856001600160a01b03166122269092919063ffffffff16565b805190915015611f5a5780806020019051810190612156919061272d565b611f5a5760405162461bcd60e51b815260206004820152602a60248201527f5361666545524332303a204552433230206f7065726174696f6e20646964206e6044820152691bdd081cdd58d8d9595960b21b6064820152608401610603565b600154600160a01b900460ff16610ba75760405162461bcd60e51b815260206004820152601460248201527314185d5cd8589b194e881b9bdd081c185d5cd95960621b6044820152606401610603565b80516a636f6e736f6c652e6c6f67602083016000808483855afa5050505050565b6060612235848460008561223f565b90505b9392505050565b6060824710156122a05760405162461bcd60e51b815260206004820152602660248201527f416464726573733a20696e73756666696369656e742062616c616e636520666f6044820152651c8818d85b1b60d21b6064820152608401610603565b6001600160a01b0385163b6122f75760405162461bcd60e51b815260206004820152601d60248201527f416464726573733a2063616c6c20746f206e6f6e2d636f6e74726163740000006044820152606401610603565b600080866001600160a01b0316858760405161231391906127d5565b60006040518083038185875af1925050503d8060008114612350576040519150601f19603f3d011682016040523d82523d6000602084013e612355565b606091505b5091509150612365828286612370565b979650505050505050565b6060831561237f575081612238565b82511561238f5782518084602001fd5b8160405162461bcd60e51b815260040161060391906123d9565b60005b838110156123c45781810151838201526020016123ac565b838111156123d3576000848401525b50505050565b60208152600082518060208401526123f88160408501602087016123a9565b601f01601f19169190910160400192915050565b60006020828403121561241e57600080fd5b5035919050565b80356001600160a01b038116811461243c57600080fd5b919050565b6000806040838503121561245457600080fd5b61245d83612425565b946020939093013593505050565b6000806040838503121561247e57600080fd5b50508035926020909101359150565b60006020828403121561249f57600080fd5b61223882612425565b600181811c908216806124bc57607f821691505b602082108103610f4c57634e487b7160e01b600052602260045260246000fd5b6020808252601f908201527f5265656e7472616e637947756172643a207265656e7472616e742063616c6c00604082015260600190565b6020808252601e908201527f566f74696e67457363726f773a20636f6e74726163742073746f707065640000604082015260600190565b6020808252601b908201527f566f74696e67457363726f773a20696e76616c69642076616c75650000000000604082015260600190565b634e487b7160e01b600052601160045260246000fd5b600082198211156125aa576125aa612581565b500190565b634e487b7160e01b600052601260045260246000fd5b6000826125d4576125d46125af565b500490565b6000828210156125eb576125eb612581565b500390565b60006001820161260257612602612581565b5060010190565b600081600019048311821515161561262357612623612581565b500290565b60006001600160ff1b038184138284138082168684048611161561264e5761264e612581565b600160ff1b600087128281168783058912161561266d5761266d612581565b6000871292508782058712848416161561268957612689612581565b8785058712818416161561269f5761269f612581565b505050929093029392505050565b60008083128015600160ff1b8501841216156126cb576126cb612581565b6001600160ff1b03840183138116156126e6576126e6612581565b50500390565b600080821280156001600160ff1b038490038513161561270e5761270e612581565b600160ff1b839003841281161561272757612727612581565b50500190565b60006020828403121561273f57600080fd5b8151801515811461223857600080fd5b838152606081016004841061277457634e487b7160e01b600052602160045260246000fd5b602082019390935260400152919050565b600062ffffff80831681810361279d5761279d612581565b6001019392505050565b6000826127b6576127b66125af565b600160ff1b8214600019841416156127d0576127d0612581565b500590565b600082516127e78184602087016123a9565b919091019291505056fea2646970667358221220ff1d5315cb8d9600d4a5c1544715c636e1278dbc4405e9985458c7fcaf6b9f6864736f6c634300080e0033",
  "linkReferences": {},
  "deployedLinkReferences": {}
}